:0400000039C0FECF36
:10000400FDCFFCCFFBCFFACFF9CFF8CFF7CFF6CFA8
:10001400F5CFF4CFF3CFF2CFF1CFF0CFEFCFEECFD8
:10002400EDCFECCFEBCF1027E80364000A0001000A
:10003400001000011000010000001E000C0013005D
:1000440063004553434F4D0080C0010002003C0053
:100054000100E9003E000100EA0040000100EB005D
:1000640042000100ED0044000200EF004C000000DB
:10007400F894EE27ECBBF1E0FBBFEBBFE5BF8DE0EE
:10008400A2E0BB27ED938A95E9F780E092E0A0E631
:10009400ED930197E9F7EEE4F0E0859195910097EF
:1000A40061F0A591B59105901590BF01F0010590FF
:1000B4000D920197E1F7FB01F0CFEFE5EDBFE2E030
:1000C400EEBFC0EED0E00DC007D2E12FE066E7B985
:1000D40083E08A95F1F7369A349BFECF349AE5B1E2
:1000E400F9C1E0E0EABBEBBBEFEFE7BBE0E0E8BB64
:1000F400E4BBE5BBE1BBEFEFE2BBE0E0E3BFE2BFA3
:10010400ECBFEFBDEEBDEDBDECBDE7BDE6BDEBBDA7
:10011400EABDE9BDE8BDE2BDE5BDE4BDE3BDE9BFBF
:10012400E5BFE4BFEAB9E0E8E8B9E0E6E7B9E1E849
:10013400E6B9E0E1E0BFE0E0EDB9E6BFA0E1A3D1BC
:100144006624772488249924E4E1F0E05F01C7D190
:10015400809902C0E89401C0689421F820FE02C08E
:1001640021FE01C004C0E4E02E26AAE0BBD121FA9E
:1001740020F8EBE0B9D1A6E4B0E076D1A0E0A4DFAA
:10018400AAE0EA02F001E093E500A2E3EA9FF001AD
:10019400DF01EFEFF0E050D2A0EEB0E06F2F660F7A
:1001A400660B762FD3D2ED93FD936D937C93E09100
:1001B400E000F091E1006091E2007091E300A0E0C2
:1001C400B0E080EE90E4F5D292D19AD1A2D18ED350
:1001D40009F008F402C09DD18AD192D1E0E0F0E0A8
:1001E40060E271E435D37BD22F01D201E4E6F0E082
:1001F40023D2CE2ED201E4E6F0E026D22F01D201A2
:100204008DD122D2E093E400D2018BD1DE2EEAE03C
:100214008BD1AC2DA05D0AD1EBE086D1AD2DA05DD4
:1002240005D1ECE081D1AEE201D1EDE07DD1A09128
:10023400E400A05DFBD0EEE077D1AFEDF7D0EFE0C6
:1002440073D1A3E4F3D022FE0DC0819902C06FD113
:1002540046D1829902C071D142D1839902C073D12F
:100264003ED10FC0819905C074D17BD108F081D1F2
:1002740036D1829902C08AD132D1839902C08CD1FD
:100284002ED1E1E3F0E0E615F70524F466247724A3
:100294005AD103C0F30131963F01A091E600AC337B
:1002A40010F04BD17FD1A091E700AC3328F03FD1BF
:1002B400E0E0E093E70076D1A091E800A83140F0B7
:1002C4006BD1E0E0E093E8006DD1E0E0E093E7007B
:1002D400A091E900A03220F059D1E0E0E093E900D8
:1002E400A091EA00AD3038F034D1E0E0E093EA00C8
:1002F40038D108F03ED1E0E017D1A091E80056D102
:1003040057D1E1E011D1A091E80055D1E2E00CD140
:10031400AAE38CD0E3E008D1A091E70047D148D10B
:10032400E4E002D1A091E70046D1E5E0FDD0AAE3E4
:100334007DD0E6E0F9D0A091E60038D139D1E7E0EC
:10034400F3D0A091E60037D1E0E0CED038D161D12E
:100354002FD1E1E0C9D033D174D12AD1E2E0C4D0A5
:1003640033D157D125D1E3E0BFD02ED16AD120D1EA
:10037400E4E0BAD0ADE25AD0E5E0B6D0A091EA000C
:1003840015D116D1E6E0B0D0A091EA0014D1E7E08F
:10039400ABD0ADE24BD0E8E0A7D0A091E90006D104
:1003A40007D1E9E0A1D0A091E90005D198D0CFCE42
:1003B400FFCF92D0E8B3EF70AE2FE12FE07FEA2BAE
:1003C400E8BB07D1C29A05D1C29803D183C0AA93CE
:1003D400A881EFDFE881E295E883A881EADF81E183
:1003E4008A95F1F72196089500D11A2F0A81E12FF9
:1003F400F0E0E151FF4FE081E00FAE2FE8DF009322
:10040400F3001093F400F6D023960895A2E0DFDF02
:10041400A3E068D0ACE0DBDFA1E0D9DFA3E062D0E9
:10042400E0E0E093F400E093F300089555D01A302F
:1004340031F0E091F500A091F300AE1758F0E0E040
:10044400EA93A091F400AF5FA093F400CDDF1A30DB
:1004540009F440C0E091F300EF5FE093F300C09A29
:10046400A12FB5DFC09836C0BED09D01F9012F5F22
:100474003F4FE4911E2FE03019F0A12FD7DFF6CFC4
:10048400B7D02496089528D0E7B3E06FE7BBBA9AB3
:10049400B89AB99AC298C098C1981093F500E12F00
:1004A400E058E093F100E12FE054E093F200A4E17E
:1004B40019D093D092D091D0A0E27BDF81E28A95CB
:1004C400F1F7A8E284DFA4E082DFA5E880DFA6E0FC
:1004D4007EDF9CDF199108951A931A2F0895A2E3E1
:1004E400B0E024C2B0E022C2EA93A0E07DCFE09362
:1004F400E000F093E1006093E2007093E30008955C
:10050400A091E000B091E1008091E2009091E300BD
:100514000895E0E0F0E066EC72E40895EAE0F0E0CB
:100524000895FCDF89D00895EA93A1E05DCFE091BE
:10053400E800EF5FE093E8000895E091E700EF5FE3
:10054400E093E7000895E091E600EF5FE093E600B2
:100554000895ADEEB0E0ED91FD913196FE93EE93EA
:100564000895A091ED00B091EE00A436E0E0BE073E
:100574000895ABEEB0E0ED91FD913196FE93EE93CC
:10058400E0E0E093ED00E093EE000895E091EA00EE
:10059400EF5FE093EA000895E091E900EF5FE093F4
:1005A400E9000895E0E0E093E6000895B0E0B9CFF3
:1005B400E05DAE2F3BCFBB27B1DF46D0F9CFA09192
:1005C400EB00B091EC00AACFA091ED00B091EE0049
:1005D400A5CF82E08A95F1F70895A0E3EADE81E2EF
:1005E4008A95F1F708953A932A931A930A930895F2
:1005F4003B812A81198108810895F195E195F040A4
:100604000895F09560957095E195FF4F6F4F7F4F7A
:1006140008950024112490E1AA0FBB1F001C111C93
:100624000E1A1F0A18F40E0E1F1E01C0A1609A951F
:1006340099F7FD01D001089515D0EBDF0EF4DDDF4D
:100644000895E7DFFD010895E894B7FF04C0B1956C
:10065400A195B0406894F7FDD0DFDBDFFD010EF417
:10066400CCDF0895E894F7FF02C0C7DF6894B7FFB2
:1006740006C0B195A195B04000F8039400FA08951E
:10068400552342F4503811F4E0FF04C03196691F39
:10069400791F6BF050E8572711F45F93C8C05F3F90
:1006A40031F0660F000C57956795752F08955F9389
:1006B40000200AF0C7C0C0C050E8192E1522880FC8
:1006C400991F9527550F879550E8072E0522660F29
:1006D400771F7527550F67950895689401C0E894AE
:1006E4005F93F2DF703818F07F3F08F4A0C056E142
:1006F400571BAAF4519558300EF4593030F0EFEFEF
:10070400FFEF6FEF7FE777F91AC077275523B9F02A
:10071400EE0FFF1F661F771F5A95D1F710C077277A
:10072400583028F0EF2FF62F672F5850F9CF552364
:1007340031F076956795F795E7955A95D1F70020AE
:100744000AF45FDF5F910895689401C0E8943097DC
:1007540060407040B1F0002426F0772312F4009436
:1007640050DF172E7EE1112032F07A95EE0FFF1F35
:10077400661F111CF9CFEF2FF62F612D5F938ADFCF
:100784005F9108954F93AF01FD01DA01AB01BC0104
:10079400CA01402D012C142E4F910895EA0FFB1F1E
:1007A400681F0895E095F0956095EF5FFF4F6F4FD8
:1007B40008955F9381DF903839F1703821F1572F14
:1007C400591B2BF112F4DEDFFACF583118F0AA27A7
:1007D400BB278827583028F0AB2FB82F88275850CC
:1007E400F9CF552329F08695B795A7955A95D9F74A
:1007F400502D512572F0D2DF38F46795F795E795BF
:10080400739513F41FC0BEDF45DF5F910895D8F7D9
:10081400FBCFEA1BFB0B680B51F010F40094C2DF12
:10082400662392F3EE0FFF1F661F7A95CBF7EE2730
:10083400FF27BF015F910895EFEFFFEF6FE77FEFB1
:100844005F910895EFEFFFEF6FE77FE75F91089502
:100854005F9332DF703859F3903849F301240894D8
:10086400791F23F424F300203AF3ECCF0F921F9363
:100874002F933F934F93112722279927689FA00115
:100884008F9F302D410D591F6B9F300D411D591FF6
:100894008E9F27D0BF9F25D06A9F23D0BE9F1DD097
:1008A400AF9F1BD0AE9F110D291F391F491F591F20
:1008B400E32FF42F652F522F4F913F912F911F91CA
:1008C4000F9066232AF0550FEE1FFF1F661F02C00C
:1008D40073954BF2D5DE5F910895100D211D391FDC
:1008E40002C0200D311D491F591F089599239AF004
:1008F400772342F0971748F029F4AE17BF0786070D
:1009040020F031F098948894089598940894089568
:100914001894889408957723C2F7971798F3A9F742
:10092400EA17FB07680788F399F3ECCF109639F0C0
:10093400A8958AEF90E00197F1F71197C9F7089508
:00000001FF
