:060000001EC0FECFFDCF83
:10000600FCCFFBCFFACFF9CFF8CFF7CFF6CFF5CFAE
:10001600F4CFF3CFF2CFF1CFF0CFEFCFEECFEDCFDE
:10002600ECCFEBCF3F065B4F666D7C077F6F000022
:100036000100020034000000F894EE27ECBBF1E06A
:10004600FBBFEBBFE5BF8DE0A2E0BB27ED938A9532
:10005600E9F780E092E0A0E6ED930197E9F7E6E3A1
:10006600F0E085919591009761F0A591B591059085
:100076001590BF01F00105900D920197E1F7FB0184
:10008600F0CFEFE5EDBFE2E0EEBFC0EED0E000C09E
:10009600EFEFEABBE0E0EBBBEFEFE7BBE0E0E8BB8E
:1000A600E4BBEFEFE5BBE0E0E1BBE2BBE3BFE2BFF1
:1000B600ECBFEFBDEEBDEDBDECBDE7BDE6BDEBBDF6
:1000C600EABDE9BDE8BDE2BDE5BDE4BDE3BDE9BF0E
:1000D600E5BFE4BFEAB9E0E8E8B9E0E0E0BFE6B9C9
:1000E600EDB9E6BF36D03DD0EB3018F032D0E0E0C7
:1000F60044D02FD036D05E2E0ED02ED0049008BA23
:100106002BD0E491E095EBBB999903C0E52D21D066
:1001160034D0F2CFFFCF989902C0E89401C068941A
:1001260021F820FE02C021FE01C008C05394EAE077
:100136005E1608F05524A8E2B0E030D020FC02C0DC
:1001460021FC01C003C0A8E2B0E028D021FA20F8C3
:100156000895A0E0B0E00895E52DF0E0E65DFF4FDC
:100166000895E199FECFFF93FFB7F894AEBBBFBBEE
:10017600E09AEDB3FFBFFF910895E19B02C0A895F9
:10018600FCCF9FB7F894AEBBBFBBE09A8DB3E81720
:1001960019F0EDBBE29AE19A9FBF0895109639F0E7
:1001A600A8958AEF90E00197F1F71197C9F708959E
:00000001FF
