:040000001EC0FECF51
:10000400FDCFFCCFFBCFFACFF9CFF8CFF7CFF6CFA8
:10001400F5CFF4CFF3CFF2CFF1CFF0CFEFCFEECFD8
:10002400EDCFECCFEBCF3F065B4F666D7C077F6F68
:1000340000000200040034000000F894EE27ECBB3A
:10004400F1E0FBBFEBBFE5BF8DE0A2E0BB27ED9382
:100054008A95E9F780E092E0A0E6ED930197E9F74D
:10006400E6E3F0E085919591009761F0A591B59153
:1000740005901590BF01F00105900D920197E1F7ED
:10008400FB01F0CFEFE5EDBFE2E0EEBFC0EED0E064
:100094000FC01A931A2FE12FE062E7B983E08A9523
:1000A400F1F7369A349BFECF349AE5B1199108954D
:1000B400E0E0EABBEBBBEFEFE7BBE0E0E8BBEFEF70
:1000C400E4BBE0E0E5BBE1BBE2BBE3BFE2BFECBF06
:1000D400EFBDEEBDEDBDECBDE7BDE6BDEBBDEABDDC
:1000E400E9BDE8BDE2BDE5BDE4BDE3BDE9BFE5BFF3
:1000F400E4BFEAB9E0E8E8B9E0E2E7B9E1E8E6B983
:10010400E0E1E0BFE0E0EDB9E6BFA0E0C2DFFF2739
:1001140066277727E093E000F093E1006093E20024
:100124007093E300ACE2B1E080E090E05FD0DF01E7
:10013400CB01EFEFF0E060E070E078D0E093E40012
:10014400F093E5006093E6007093E700042C052823
:1001540021F434D040D0E6E021C0E1E0F0E0E41541
:10016400F50541F42BD086D0DF01CB013AD033D052
:10017400E5E014C0E2E0F0E0E415F50581F4A091B7
:10018400E400B091E5008091E6009091E70029D069
:1001940071D0E65DFF4F049008BAE3E0E5BBF201DD
:1001A40031962F01E3E0F0E0E415F50511F4442461
:1001B4005524AAE0B0E062D0A8CFFFCFA091E4001C
:1001C400B091E5008091E6009091E700E4E6F0E06C
:1001D40060E070E008952AD0E65DFF4F049008BA0D
:1001E4000895EAE0F0E060E070E008957A9F702DF1
:1001F4006B9F700DF89F700DE99F700D6A9F602DC5
:10020400710DFB9F600D711DE89F600D711D8827A6
:10021400FA9FF02D610D781FEB9FF00D611D781F83
:10022400EA9FE02DF10D681F781F08953F934F93C7
:100234005F9300241124A00130E2AA0FBB1F881F82
:10024400991F001C111C441F551F0E1A1F0A460B30
:10025400570B28F40E0E1F1E461F571F01C0A16026
:100264003A9559F7FD01BC01D001CA015F914F9144
:100274003F910895DBDFFD01BC010895109639F02C
:10028400A8958AEF90E00197F1F71197C9F70895BF
:00000001FF
