:0400000067C0FECF08
:10000400FDCFFCCFFBCFFACFF9CFF8CFF7CFF6CFA8
:10001400F5CFF4CFF3CFF2CFF1CFF0CFEFCFEECFD8
:10002400EDCFECCFEBCF0102040810007E7D7B778F
:100034006F5F3F00412E363A413F3D003F3F3D1E3A
:100044002E36395D3E363649676B6D007F583A3A35
:100054003A46433536364F7C7E0E76784936363608
:1000640049793636364100363636367F31363636BD
:10007400467F413E3E3E3E7F413E3E3E417F007DC7
:100084007B7D007F1027E80364000A000100001054
:100094000001100001000000000000000A00000040
:1000A400000000000000000000000000000000004C
:1000B4000000000000000000000000000000060036
:1000C40004009A000100E400A0000000F894EE2768
:1000D400ECBBF1E0FBBFEBBFE5BF8DE0A2E0BB27CB
:1000E400ED938A95E9F780E092E0A0E6ED9301971D
:1000F400E9F7E2ECF0E085919591009761F0A59124
:10010400B59105901590BF01F00105900D920197EE
:10011400E1F7FB01F0CFEFE5EDBFE2E0EEBFC0EEAB
:10012400D0E000C0E0E0EABBEFEFEBBBE0E0E7BB10
:10013400EFEFE8BBE4BBE0E0E5BBEFEFE1BBE0E001
:10014400E2BBE3BFE2BFECBFEFBDEEBDEDBDECBD76
:10015400E7BDE6BDEBBDEABDE9BDE8BDE2BDE5BD79
:10016400E4BDE3BDE9BFE5BFE4BFEAB9E0E8E8B94F
:10017400E0E0E0BFE6B9EDB9E6BFE0E0E2BB69D09C
:100184006BD06DD024F46ED073D075D0F9CFEFE17D
:10019400E5BB5FD0E7E0F0E062D024F470D068D033
:1001A4006AD0F8CF56D0E7E0F0E059D08CF467D0AD
:1001B4004424552451D04E165F0644F4F201E65D02
:1001C400FF4F049005BA54D060D0F4CF54D0EBCF95
:1001D40044245524EAE0F0E04E165F06ACF439D02E
:1001E4003BD03DD064F43ED0F201A5E0B0E07ED037
:1001F400E85CFF4FE60DF71D4CD03DD0F1CF4ED05B
:1002040011F443D069D0E6CF44245524E9E1F0E069
:100214004E165F06E4F41DD01FD021D04CF422D03A
:10022400F401E60DF71DE659FF4F33D024D0F4CF87
:1002340035D029F42AD0F40131964F014DD0E9E1AB
:10024400F0E0E815F90511F488249924DFCF95CF5F
:10025400FFCF662477240895E5E0F0E008956E1654
:100264007F060895F301E65DFF4F049005BA0895F3
:10027400A4E6B0E043C0F30131963F010895F301D1
:10028400E05DFF4F049002BA0895F20131962F0108
:100294000895049002BAA5E0B0E030C0A0EEB0E04A
:1002A400ED91FD916D917D91EF5FFF4F6F4F7F4F0A
:1002B4007E936E93FE93EE93A091E000B091E100E3
:1002C4008091E2009091E300AA30E0E0BE07E0E014
:1002D4008E07E0E09E070895E0E0E093E000E093FD
:1002E400E100E093E200E093E3000895FA9FF02D2B
:1002F400EB9FF00DEA9FE02DF10D0895109639F073
:10030400A8958AEF90E00197F1F71197C9F708953E
:00000001FF
