:040000001EC0FECF51
:10000400FDCFFCCFFBCFFACFF9CFF8CFF7CFF6CFA8
:10001400F5CFF4CFF3CFF2CFF1CFF0CFEFCFEECFD8
:10002400EDCFECCFEBCF3F065B4F666D7C077F6F68
:1000340000000100020034000000F894EE27ECBB3D
:10004400F1E0FBBFEBBFE5BF8DE0A2E0BB27ED9382
:100054008A95E9F780E092E0A0E6ED930197E9F74D
:10006400E6E3F0E085919591009761F0A591B59153
:1000740005901590BF01F00105900D920197E1F7ED
:10008400FB01F0CFEFE5EDBFE2E0EEBFC0EED0E064
:100094000FC01A931A2FE12FE062E7B983E08A9523
:1000A400F1F7369A349BFECF349AE5B1199108954D
:1000B400E0E0EABBEBBBEFEFE7BBE0E0E8BBEFEF70
:1000C400E4BBE0E0E5BBE1BBE2BBE3BFE2BFECBF06
:1000D400EFBDEEBDEDBDECBDE7BDE6BDEBBDEABDDC
:1000E400E9BDE8BDE2BDE5BDE4BDE3BDE9BFE5BFF3
:1000F400E4BFEAB9E0E8E8B9E0E2E7B9E1E8E6B983
:10010400E0E1E0BFE0E0EDB9E6BFA0E0C2DF5E2ED3
:10011400A2E3EA9FF001DF01EFEFF0E036D04E2ECC
:1001240020FE08C0A42DB0E0EAE0F0E02ED011D00B
:10013400E2E007C0A42DBB27EAE0F0E02BD009D011
:10014400E1E0E5BBE1E02E26A5E0B0E03FD0DDCF65
:10015400FFCFE65DFF4F049008BA0895F195E1954D
:10016400F04008950024112490E1AA0FBB1F001C45
:10017400111C0E1A1F0A18F40E0E1F1E01C0A160D6
:100184009A9599F7FD01D001089512D0EBDF0EF492
:10019400E5DF0895E894B7FF04C0B195A195B04098
:1001A4006894F7FDDBDFDEDFFD010EF4D7DF089591
:1001B400E894F7FF02C0D2DF6894B7FF06C0B19598
:1001C400A195B04000F8039400FA0895109639F010
:1001D400A8958AEF90E00197F1F71197C9F7089570
:00000001FF
