:0800000019C0FECFFDCFFCCFBB
:10000800FBCFFACFF9CFF8CFF7CFF6CFF5CFF4CFB4
:10001800F3CFF2CFF1CFF0CFEFCFEECFEDCFECCFE4
:10002800EBCF0000020006002A000000F894EE273B
:10003800ECBBF1E0FBBFEBBFE5BF8DE0A2E0BB2767
:10004800ED938A95E9F780E092E0A0E6ED930197B9
:10005800E9F7ECE2F0E085919591009761F0A591C0
:10006800B59105901590BF01F00105900D9201978B
:10007800E1F7FB01F0CFEFE5EDBFE2E0EEBFC0EE48
:10008800D0E000C0EFEFEABBE0E0EBBBE7BBEFEF8F
:10009800E8BBE0E0E4BBE5BBE1BBE2BBE3BFE2BF3A
:1000A800ECBFEFBDEEBDEDBDECBDE7BDE6BDEBBD04
:1000B800EABDE9BDE8BDE2BDE5BDE4BDE3BDE9BF1C
:1000C800E5BFE4BFEAB9E0E8E8B9E0E0E0BFE6B9D7
:1000D800EDB9E6BF4424552466247724E8EEF3E01E
:1000E8006E167F066CF4B09B04C0F20131962F01A6
:1000F8003197A1E0B0E03AD0F30131963F01EECF5D
:10010800EAE5F0E02DD024F0EEE6F0E02CD00CF497
:1001180002C0E5E022C0EEEBF0E022D024F0E2EDF0
:10012800F0E021D00CF402C0EAE017C0E2E2F1E00E
:1001380017D024F0E6E3F1E016D00CF402C0E1E0B9
:100148000CC0EEE5F1E00CD024F0EAE9F1E00BD0C8
:100158000CF402C0E4E001C0E0E0EBBBBBCFFFCF92
:100168004E165F060895E415F5050895109639F0C2
:10017800A8958AEF90E00197F1F71197C9F70895CC
:00000001FF
