:020000001EC020
:10000200FECFFDCFFCCFFBCFFACFF9CFF8CFF7CFA2
:10001200F6CFF5CFF4CFF3CFF2CFF1CFF0CFEFCFD2
:10002200EECFEDCFECCFEBCF3F065B4F666D7C079B
:100032007F6F00000100020034000000F894EE27F8
:10004200ECBBF1E0FBBFEBBFE5BF8DE0A2E0BB275D
:10005200ED938A95E9F780E092E0A0E6ED930197AF
:10006200E9F7E6E3F0E085919591009761F0A591BB
:10007200B59105901590BF01F00105900D92019781
:10008200E1F7FB01F0CFEFE5EDBFE2E0EEBFC0EE3E
:10009200D0E00FC01A931A2FE12FE066E7B983E090
:1000A2008A95F1F7369A349BFECF349AE5B11991CD
:1000B2000895E0E0EABBEBBBEFEFE7BBE0E0E8BBB3
:1000C200EFEFE4BBE0E0E5BBE1BBEFEFE2BBE0E07A
:1000D200E3BFE2BFECBFEFBDEEBDEDBDECBDE7BDE2
:1000E200E6BDEBBDEABDE9BDE8BDE2BDE5BDE4BDEF
:1000F200E3BDE9BFE5BFE4BFEAB9E0E8E8B9E0E69D
:10010200E7B9E1E8E6B9E0E1E0BFE0E0EDB9E6BF7A
:10011200809902C0E89401C0689421F820FE02C0D0
:1001220021FE01C004C0E4E02E26A8E25BD020FC40
:1001320002C021FC01C002C0A8E254D0A0E0AADFA4
:10014200AAE0EA02502C22FE10C04ED05AD0EAE2B7
:10015200F0E05BD05DD060D067D06DD070D0A42DC0
:10016200BB27EAE0F0E0A0D032C03ED0A6E6B6E679
:1001720086EE9FE39DD1A0E0B0E080E092E449D119
:1001820040D04AD0AAE0B7ED83E29CE391D1D7D028
:1001920052D03ED0642D7727F301A4E6B0E053D0CD
:1001A2003D013AD041D04F01642D7727F401AAE0F6
:1001B200B0E049D04D01F301E819F9096F2F660F3C
:1001C200660B762FF3D030D036D039D0F401E65D0D
:1001D200FF4F1BD0E6E0E5BBAAE004D021FA20F8ED
:1001E20097CFFFCFB0E0B2C1E52DF0E06F2F660FE1
:1001F200660B762FDBD0A9E3B4EB88E49EE358D1FB
:1002020008959BD04E2EAAE0EDCF049008BA08952F
:10021200E3E0E5BBAAE0E6CFE42DF0E06F2F660F46
:10022200660B762FC3D00895ADECBCEC8CEC9DE34D
:100232003FD185D008953F01E65DFF4FE6CFE5E06F
:10024200E5BBAAE0CFCF18D0DB01AE1BBF0B0895F0
:10025200F195E195F0400895F09560957095E195DE
:10026200FF4F6F4F7F4F0895FA9FF02DEB9FF00DD8
:10027200EA9FE02DF10D089525D0F6DF0EF4E8DFB8
:1002820008950024112490E1AA0FBB1F001C111C29
:100292000E1A1F0A18F40E0E1F1E01C0A1609A95B5
:1002A20099F7FD01D0010895E894B7FF04C0B19514
:1002B200A195B0406894F7FDCBDFE3DFFD010EF4BA
:1002C200C7DF0895E894F7FF02C0C2DF6894B7FF62
:1002D20006C0B195A195B04000F8039400FA0895C4
:1002E200552342F4503811F4E0FF04C03196691FDF
:1002F200791F6BF050E8572711F45F93C8C05F3F36
:1003020031F0660F000C57956795752F08955F932E
:1003120000200AF0C7C0C0C050E8192E1522880F6D
:10032200991F9527550F879550E8072E0522660FCE
:10033200771F7527550F67950895689401C0E89453
:100342005F93F2DF703818F07F3F08F4A0C056E1E7
:10035200571BAAF4519558300EF4593030F0EFEF94
:10036200FFEF6FEF7FE777F91AC077275523B9F0D0
:10037200EE0FFF1F661F771F5A95D1F710C0772720
:10038200583028F0EF2FF62F672F5850F9CF55230A
:1003920031F076956795F795E7955A95D1F7002054
:1003A2000AF45ADF5F910895689401C0E894309787
:1003B20060407040B1F0002426F0772312F40094DC
:1003C2004BDF172E7EE1112032F07A95EE0FFF1FE0
:1003D200661F111CF9CFEF2FF62F612D5F938ADF75
:1003E2005F9108954F93AF01FD01DA01AB01BC01AA
:1003F200CA01402D012C142E4F910895EA0FFB1FC4
:10040200681F0895E095F0956095EF5FFF4F6F4F7D
:1004120008955F9381DF903839F1703821F1572FB9
:10042200591B2BF112F4DEDFFACF583118F0AA274C
:10043200BB278827583028F0AB2FB82F8827585071
:10044200F9CF552329F08695B795A7955A95D9F7EF
:10045200502D512572F0D2DF38F46795F795E79564
:10046200739513F41FC0BEDF45DF5F910895D8F77F
:10047200FBCFEA1BFB0B680B51F010F40094C2DFB8
:10048200662392F3EE0FFF1F661F7A95CBF7EE27D6
:10049200FF27BF015F910895EFEFFFEF6FE77FEF57
:1004A2005F910895EFEFFFEF6FE77FE75F910895A8
:1004B2005F9332DF703859F3903849F3012408947E
:1004C200791F23F424F300203AF3ECCF0F921F9309
:1004D2002F933F934F93112722279927689FA001BB
:1004E2008F9F302D410D591F6B9F300D411D591F9C
:1004F2008E9F27D0BF9F25D06A9F23D0BE9F1DD03D
:10050200AF9F1BD0AE9F110D291F391F491F591FC5
:10051200E32FF42F652F522F4F913F912F911F916F
:100522000F9066232AF0550FEE1FFF1F661F02C0B1
:1005320073954BF2D5DE5F910895100D211D391F81
:1005420002C0200D311D491F591F0895109639F020
:10055200A8958AEF90E00197F1F71197C9F70895EE
:00000001FF
