:080000001AC0FECFFDCFFCCFBA
:10000800FBCFFACFF9CFF8CFF7CFF6CFF5CFF4CFB4
:10001800F3CFF2CFF1CFF0CFEFCFEECFEDCFECCFE4
:10002800EBCF00000000040006002A000000F8944E
:10003800EE27ECBBF1E0FBBFEBBFE5BF8DE0A2E034
:10004800BB27ED938A95E9F780E092E0A0E6ED936F
:100058000197E9F7EEE2F0E085919591009761F05C
:10006800A591B59105901590BF01F00105900D92ED
:100078000197E1F7FB01F0CFEFE5EDBFE2E0EEBF5E
:10008800C0EED0E00FC01A931A2FE12FE062E7B953
:1000980083E08A95F1F7369A349BFECF349AE5B11E
:1000A80019910895E0E0EABBEBBBEFEFE7BBE0E0B6
:1000B800E8BBE4BBEFEFE5BBE1BBE0E0E2BBE3BFDD
:1000C800E2BFECBFEFBDEEBDEDBDECBDE7BDE6BDEB
:1000D800EBBDEABDE9BDE8BDE2BDE5BDE4BDE3BDFC
:1000E800E9BFE5BFE4BFEAB9E0E8E8B9E0E2E7B9AB
:1000F800E1E8E6B9E0E1E0BFE0E0EDB9E6BFA0E0A5
:100108004CD1BE2EA1E049D1AE2E989902C0999B40
:1001180001C04BC05524442447D101F149D111F401
:10012800E1E01DC049D111F4E3E019C049D111F44F
:10013800E7E015C049D111F4EFE011C049D111F43D
:10014800EFE10DC049D111F4EFE309C049D111F431
:10015800EFE705C049D111F4EFEF01C0E0E0E8BBDB
:1001680047D101F125D111F4E1E01DC025D111F4E9
:10017800E3E019C025D111F4E7E015C025D111F449
:10018800EFE011C025D111F4EFE10DC025D111F434
:10019800EFE309C025D111F4EFE705C025D111F42B
:1001A800EFEF01C0E0E0E2BBF3C0989B02C0999B6F
:1001B80001C059C0F9D041F1FBD019F4E1E05E2E3D
:1001C80024C0FAD019F4E2E05E2E1FC0F9D019F469
:1001D800E4E05E2E1AC0F8D019F4E8E05E2E15C0EF
:1001E800F7D019F4E0E15E2E10C0F6D019F4E0E281
:1001F8005E2E0BC0F5D019F4E0E45E2E06C0F4D0F4
:1002080019F4E0E85E2E01C05524F2D041F1D0D0B7
:1002180019F4E1E04E2E24C0CFD019F4E2E04E2EBE
:100228001FC0CED019F4E4E04E2E1AC0CDD019F478
:10023800E8E04E2E15C0CCD019F4E0E14E2E10C0E7
:10024800CBD019F4E0E24E2E0BC0CAD019F4E0E48A
:100258004E2E06C0C9D019F4E0E84E2E01C0442441
:1002680058BA42BA95C0989902C0999901C090C0ED
:10027800EAE0F0E0E815F90529F4882499247724C0
:10028800662409C0751408F4752C641408F4642CE9
:10029800F40131964F0178BA62BAA2E3B0E0D6D041
:1002A80083D0B9F185D021F4E1E0E8BB5E2E34C0FB
:1002B80083D029F4E3E0E8BBE2E05E2E2DC080D0D5
:1002C80029F4E7E0E8BBE4E05E2E26C07DD029F4FF
:1002D800EFE0E8BBE8E05E2E1FC07AD029F4EFE13A
:1002E800E8BBE0E15E2E18C077D029F4EFE3E8BB65
:1002F800E0E25E2E11C074D029F4EFE7E8BBE0E439
:100308005E2E0AC071D029F4EFEFE8BBE0E85E2E5C
:1003180003C0E0E0E8BB55246BD0B9F149D021F423
:10032800E1E0E2BB4E2E34C047D029F4E3E0E2BB63
:10033800E2E04E2E2DC044D029F4E7E0E2BBE4E031
:100348004E2E26C041D029F4EFE0E2BBE8E04E2E65
:100358001FC03ED029F4EFE1E2BBE0E14E2E18C009
:100368003BD029F4EFE3E2BBE0E24E2E11C038D0D7
:1003780029F4EFE7E2BBE0E44E2E0AC035D029F4B9
:10038800EFEFE2BBE0E84E2E03C0E0E0E2BB44241E
:10039800A2E3B0E05BD0B3CEFFCF75DEF0E0DF01C3
:1003A800E0E2F0E040D00895EB2DF0E030970895BA
:1003B800E130A0E0FA070895E230A0E0FA070895D6
:1003C800E330A0E0FA070895E430A0E0FA070895C2
:1003D800E530A0E0FA070895E630A0E0FA070895AE
:1003E800E730A0E0FA070895E830A0E0FA0708959A
:1003F800EA2DF0E030970895F195E195F0400895E1
:100408000024112490E1AA0FBB1F001C111C0E1A16
:100418001F0A18F40E0E1F1E01C0A1609A9599F7C5
:10042800FD01D001089504D0EBDF0EF4E5DF089557
:10043800E894F7FF02C0E0DF6894B7FF06C0B19503
:10044800A195B04000F8039400FA0895109639F089
:10045800A8958AEF90E00197F1F71197C9F70895E9
:00000001FF
