:060000002BC0FECFFDCF76
:10000600FCCFFBCFFACFF9CFF8CFF7CFF6CFF5CFAE
:10001600F4CFF3CFF2CFF1CFF0CFEFCFEECFEDCFDE
:10002600ECCFEBCF3F065B4F666D7C077F6F010021
:10003600000001002D4E414E00494E4600000200D0
:10004600020034000200040036000100EC00380013
:100056000000F894EE27ECBBF1E0FBBFEBBFE5BF79
:100066008DE0A2E0BB27ED938A95E9F780E092E068
:10007600A0E6ED930197E9F7E4E4F0E08591959128
:10008600009761F0A591B59105901590BF01F0011B
:1000960005900D920197E1F7FB01F0CFEFE5EDBF7B
:1000A600E2E0EEBFC0EED0E000C0E0ECEABBEFE37A
:1000B600EBBBEFEFE7BBE0E0E8BBEFEFE4BBE0E074
:1000C600E5BBEFEFE1BBE0E0E2BBE3BFE2BFECBFC5
:1000D600EFBDEEBDEDBDECBDE7BDE6BDEBBDEABDDA
:1000E600E9BDE8BDE2BDE5BDE4BDE3BDE9BFE5BFF1
:1000F600E4BFEAB9E0E8E8B9E0E0E0BFE6B9EDB9A7
:10010600E6BF21D058D114D020FC0EC088249924F3
:10011600EEE1F0E08E169F0634F4FCD0ABD0F4018D
:1001260031964F01F5CF21D0F5D089D0EDCFFFCF55
:10013600BBD18D010093E8001093E9000093EA001B
:100146001093EB0019C155244424E6E037D1E7E0CB
:10015600E093E100689420F8E0E033D1E0E0E0933A
:10016600E30032D134D138D108953CD140D1EA0FE1
:10017600FB1F2DD13CD1189724F4A091E500AA23AA
:100186004AF43AD13ED141D12DD1EE0FFF1F2FD1E6
:1001960041D11DD142D146D140D11797C1F44CD19E
:1001A6004ED119F049D150D141F454D158D15CD136
:1001B600B2D12BD132D136D10AC0439405D107D161
:1001C6000BD1EFEFFFEF21D1EFEFFFEF48D1E09139
:1001D600E600F091E700309701F553D130D119F0E0
:1001E60050D132D139F436D13AD117D11BD13CD1C5
:1001F60092D10FC05394E4E0F0E0E9D0E4E0F0E0FF
:10020600E093E600F093E700E1E0F0E028D1E1E0DA
:10021600F0E0E093E800F093E900E9E0E51510F07E
:10022600E41508F490DF0895DE98DF9AE42D2CD1CA
:10023600ADD1DE9ADF98E52D27D1A8D10895E894AF
:10024600C899689431F8E894C999689433F831FCF0
:1002560002C032FC01C002C0E1E02E2633FC02C01F
:1002660034FC01C001C06FDF31FA32F833FA34F8DA
:10027600DBDF0895E894CA99689421F8E894CC994C
:10028600689423F8E894CB99689425F8E894CD9976
:10029600689427F821FC02C022FC01C008C0CCD01B
:1002A600F0E03197FF231AF0C7D0E15087D025FC44
:1002B60002C026FC01C009C0BFD0EF5F7FD0A0916D
:1002C600E000A73010F0E6E079D023FC02C024FC61
:1002D60001C008C0D6D0F0E03197FF231AF0D1D084
:1002E600E1506FD027FC02C030FC01C009C0C9D064
:1002F600EF5F67D0A091E200A73010F0E6E061D092
:1003060021FA22F823FA24F825FA26F827FA30F8F3
:1003160096DF0895C9D01FEF00E066247724E8E051
:10032600F0E06E167F0644F5E62DA1E0C4D0E09518
:10033600E123E5BB00E080D0ADD019F07DD0AFD091
:1003460009F400689ED0A6D019F09BD0A8D009F475
:100356000160E091E400F091E500E615F70529F467
:10036600E091E600A1E0A7D00E2B02BB24D00ED16F
:10037600F30131963F01D3CF099119910895E09188
:10038600EC00F091ED006091EE007091EF00ADE6AB
:10039600BEE486EC91E49FD0EE59F8486F4F7F4F4C
:1003A600E093EC00F093ED006093EE007093EF00A5
:1003B600FB01FF770895A1E0B0E00895E093E00027
:1003C6000895E093E2000895E3E0F0E00895E093F5
:1003D600E400F093E5000895F7DFE093E600F0937C
:1003E600E7000895E091E800F091E9000895A091F2
:1003F600E400B091E5000895A091E800B091E9000D
:100406000895EFEFFFEF87D00895E093E800F093AB
:10041600E9000895EA0FFB1F0895A091E600B09148
:10042600E7000895E091EA00F091EB00F3DFE09336
:10043600E600F093E7000895E091E0000895D7DF25
:10044600F0E0EA17FB070895F0E03196D0DFEA17EF
:10045600FB070895A091EA00B091EB00D2CFE0939C
:10046600EA00F093EB0008958ADFDF01E2E0F0E0B6
:100476006AD0EE0FFF1FA1E0B0E081D0EA1BFB0BB4
:10048600BBCFE091E2000895F0E0E65DFF4F0490F7
:1004960008BA91CFD301F0E0EA17FB070895F0E020
:1004A6003196E615F70508951A930A930895F1957E
:1004B600E195F0400895EE230E2EEA2F19F0EE0F87
:1004C6000A94E9F70895FA9FF02DEB9FF00DEA9F45
:1004D600E02DF10D08957A9F702D6B9F700DF89F9A
:1004E600700DE99F700D6A9F602D710DFB9F600D69
:1004F600711DE89F600D711D8827FA9FF02D610D13
:10050600781FEB9FF00D611D781FEA9FE02DF10D1E
:10051600681F781F089525D0D6DF0EF4C8DF08952A
:100526000024112490E1AA0FBB1F001C111C0E1AF7
:100536001F0A18F40E0E1F1E01C0A1609A9599F7A6
:10054600FD01D0010895E894B7FF04C0B195A195C7
:10055600B0406894F7FDABDFE3DFFD010EF4A7DFE3
:100566000895E894F7FF02C0A2DF6894B7FF06C0BB
:10057600B195A195B04000F8039400FA08951B2E9A
:10058600BF2FF12D1A2EAE2FE12D0895109639F0BA
:10059600A8958AEF90E00197F1F71197C9F70895AA
:00000001FF
