:0E00000014C0FECFFDCFFCCFFBCFFACFF9CF5F
:10000E00F8CFF7CFF6CFF5CFF4CFF3CFF2CFF1CFC6
:10001E00F0CFEFCFEECFEDCFECCFEBCFF894EE27C6
:10002E00ECBBF1E0FBBFEBBFE5BF8DE0A2E0BB2771
:10003E00ED938A95E9F780E092E0A0E6ED930197C3
:10004E00E9F7EFE5EDBFE2E0EEBFC0EED0E000C0B5
:10005E00EFEFEABBE0E0EBBBE7BBEFEFE8BBE0E0C6
:10006E00E4BBE5BBE1BBE2BBE3BFE2BFECBFEFBD70
:10007E00EEBDEDBDECBDE7BDE6BDEBBDEABDE9BD38
:10008E00E8BDE2BDE5BDE4BDE3BDE9BFE5BFE4BF4C
:10009E00EAB9E0E8E8B9E0E0E0BFE6B9EDB9E6BFFD
:1000AE00B09906C0D89AA9E135D0ABEDB1E02FC01A
:1000BE00B19906C0D89AA2E32DD0A2ECB1E027C028
:1000CE00B29906C0D89AABE425D0A9EAB1E01FC018
:1000DE00B39906C0D89AA4E61DD0A0E9B1E017C026
:1000EE00B49906C0D89AADE715D0A7E7B1E00FC016
:1000FE00B59906C0D89AA6E90DD0AEE5B1E007C015
:10010E00B69906C0D89AAFEA05D0A5E4B1E006D0FC
:10011E00C7CFFFCFB0E002D0D8980895109639F02F
:10012E00A8958AEF90E00197F1F71197C9F7089516
:00000001FF
