:060000001EC049C04FC004
:10000600FCCFFBCFFACFF9CFF8CFF7CFF6CFF5CFAE
:10001600F4CFF3CFF2CFF1CFF0CFEFCFEECFEDCFDE
:10002600ECCFEBCF3F065B4F666D7D077F6F000021
:100036000100050034000000F894EE27ECBBF1E067
:10004600FBBFEBBFE5BF8DE0A2E0BB27ED938A9532
:10005600E9F780E092E0A0E6ED930197E9F7E6E3A1
:10006600F0E085919591009761F0A591B591059085
:100076001590BF01F00105900D920197E1F7FB0184
:10008600F0CFEFE5EDBFE2E0EEBFC0EED0E01EC080
:1000960057D05394EAE0E51509F4552406C050D02C
:1000A600552011F4E9E05E2E5A94A2E3B0E056D052
:1000B600E991EFBFF991E991B991A9919991899146
:1000C60079916991F990199009901895E0E0EABB49
:1000D600EBBBEFEFE7BBE0E0E8BBE4BBE5BBE1BBB6
:1000E600EFEFE2BBE0E0E3BFE2BFECBFEFBDEEBD8A
:1000F600EDBDECBDE7BDE6BDEBBDEABDE9BDE8BDC6
:10010600E2BDE5BDE4BDE3BDE9BFEBB7E06CEBBF27
:10011600EFE0E5BFE0E0E4BFE0ECEABFE0E0EAB92B
:10012600E0E8E8B9E0E0E0BFE6B9EDB9E6BF78940B
:10013600E52DF0E0E65DFF4F049008BAF9CFFFCF5A
:100146000A921A92FA926A937A938A939A93AA9344
:10015600BA93EA93FA93EFB7EA930895109639F0B3
:10016600A8958AEF90E00197F1F71197C9F70895DE
:00000001FF
