:040000001BC0FECF54
:10000400FDCFFCCFFBCFFACFF9CFF8CFF7CFF6CFA8
:10001400F5CFF4CFF3CFF2CFF1CFF0CFEFCFEECFD8
:10002400EDCFECCFEBCF000000000000060006008F
:100034002A000000F894EE27ECBBF1E0FBBFEBBF15
:10004400E5BF8DE0A2E0BB27ED938A95E9F780E058
:1000540092E0A0E6ED930197E9F7E0E3F0E0859103
:100064009591009761F0A591B59105901590BF0108
:10007400F00105900D920197E1F7FB01F0CFEFE558
:10008400EDBFE2E0EEBFC0EED0E000C0EFEFEABBB0
:10009400E0E0EBBBE7BBEFEFE8BBE0E0E4BBE5BBD4
:1000A400E1BBE2BBE3BFE2BFECBFEFBDEEBDEDBD24
:1000B400ECBDE7BDE6BDEBBDEABDE9BDE8BDE2BD13
:1000C400E5BDE4BDE3BDE9BFE5BFE4BFEAB9E0E8EF
:1000D400E8B9E0E0E0BFE6B9EDB9E6BF4424552451
:1000E40066247724E4EFF1E06E167F066CF4B09B8F
:1000F40004C0F20131962F013197A1E0B0E09ED007
:10010400F30131963F01EECFEFE0F0E07DD024F033
:10011400E3E2F0E07CD00CF406C07CD01CF07FD08D
:10012400E5E082D06FC0E8E2F0E06ED024F0ECE3CA
:10013400F0E06DD00CF406C06DD01CF070D0EAE095
:1001440073D060C0E1E4F0E05FD024F0E5E5F0E0D6
:100154005ED00CF406C05ED01CF061D0E1E064D047
:1001640051C0EAE5F0E050D024F0EEE6F0E04FD0E4
:100174000CF406C04FD01CF052D0E4E055D042C07D
:10018400E3E7F0E041D024F0E7E8F0E040D00CF4FD
:1001940001C036C0ECE8F0E037D024F0E0EAF0E04B
:1001A40036D00CF414C0E0E0EBBB882499248A1404
:1001B4009B0454F4A0EEB0E0A80DB91DE0E0EC936C
:1001C400F40131964F01F3CFAA24BB241BC0E5EA06
:1001D400F0E01AD024F0E9EBF0E019D00CF410C0F0
:1001E40000240A140B0464F424D0E081EBBBA4EFD4
:1001F400B1E024D01ED0A0E0A083F50131975F01C7
:10020400E0E0EBBB6BCFFFCF4E165F060895E4151D
:10021400F5050895EAE0F0E0EA15FB050895A0EE7F
:10022400B0E0AA0DBB1D0895EC93F50131965F0172
:100234000895F5013197E052FF4F0895109639F073
:10024400A8958AEF90E00197F1F71197C9F70895FF
:00000001FF
